S0120000536C6176655F436F64652E737265633D
S11300000C942A000C943C000C943C000C943C008E
S11300100C943C000C943C000C943C000C943C006C
S11300200C943C000C943C000C943C000C943C005C
S11300300C943C000C943C000C943C000C943C004C
S11300400C943C000C943C000C943C000C943C003C
S11300500C943C0011241FBECFE5D8E0DEBFCDBF19
S113006020E0A0E6B0E001C01D92A536B207E1F79A
S11300700E9453000C94B1010C94000083E080931F
S113008064001092620081E0809361000E949500F8
S113009080EE0E948D0108950E948F01809360007C
S11300A00E94E10008950E943E000E944C00FDCF92
S11300B041E062E086E390E00E9442018FE99FE024
S11300C00197F1F700C0000040E062E086E390E0B1
S11300D00E9442018FE99FE00197F1F700C0000000
S11300E00895CF93C82F682F82E40E94680140E0EE
S11300F060E086E390E00E9442010E9458006C2F69
S11301006295607F82E40E94680140E060E086E3DB
S113011090E00E9442010E9458008FEC97E0019702
S1130120F1F700C00000CF9108952FEF81EE94E025
S1130130215080409040E1F700C0000060EF86E36A
S113014090E00E94650140E060E086E390E00E9458
S1130150050140E062E086E390E00E94050140E092
S113016061E086E390E00E940501A9988FEC97E096
S11301700197F1F700C0000082E00E9471008FEC4B
S113018097E00197F1F700C0000088E20E94710037
S11301908FEC97E00197F1F700C000008EE00E9419
S11301A071008FEC97E00197F1F700C0000081E047
S11301B00E9471008FE19EE40197F1F700C00000F6
S11301C00895CF93C82F682F82E40E94680141E00C
S11301D060E086E390E00E9442010E9458006C2F88
S11301E06295607F82E40E94680141E060E086E3FA
S11301F090E00E9442010E9458008FEC97E0019722
S1130200F1F700C00000CF910895FC01413021F0C6
S113021038F1423099F00895218181E090E0AC01F9
S113022002C0440F551F6A95E2F7BA016095862F04
S1130230822381838281682362830895218181E0FE
S113024090E0AC0102C0440F551F6A95E2F7BA0171
S1130250842F8095822381838281682B6283089511
S1130260218181E090E0AC0102C0440F551F6A95E2
S1130270E2F7BA01822F842B8183828160956823FF
S113028062830895442389F04130F1F4FC014281F2
S113029021E030E0F90102C0EE0FFF1F6A95E2F79A
S11302A0BF01642BFC0162830895FC01428121E0BB
S11302B030E0F90102C0EE0FFF1F6A95E2F7BF01BB
S11302C060956423FC0162830895FC0161830895B1
S11302D0607F823479F018F4813431F008958334E6
S11302E079F0843499F008958BB38F708BBB8BB302
S11302F0862B8BBB88B38F7088BB88B3862B88BB57
S113030085B38F7085BB85B3862B85BB82B38F7015
S113031082BB82B3682B62BB089582B9089586B705
S1130320846086BF86B7806486BF86B7806886BFD0
S113033006B607FEFDCF81B1887F8036E1F786B728
S1130340846086BF86B7806486BF86B7806886BFB0
S113035006B607FEFDCF81B1887F8038E1F783B10F
S10903600895F894FFCF9C
S9030000FC
