S0120000536C6176655F436F64652E737265633D
S11300000C942A000C943C000C943C000C943C008E
S11300100C943C000C943C000C943C000C943C006C
S11300200C943C000C943C000C943C000C943C005C
S11300300C943C000C943C000C943C000C943C004C
S11300400C943C000C943C000C943C000C943C003C
S11300500C943C0011241FBECFE5D8E0DEBFCDBF19
S113006020E0A0E6B0E001C01D92A536B207E1F79A
S11300700E9450000C94AE010C94000083E0809325
S11300806400109262000E94920080EE0E948A0135
S113009008950E948C01809360000E94DE00089500
S11300A00E943E000E944900FDCF41E062E086E3E9
S11300B090E00E943F018FE99FE00197F1F700C0B3
S11300C0000040E062E086E390E00E943F018FE997
S11300D09FE00197F1F700C000000895CF93C82F67
S11300E0682F82E40E94650140E060E086E390E0CE
S11300F00E943F010E9455006C2F6295607F82E44C
S11301000E94650140E060E086E390E00E943F01C8
S11301100E9455008FEC97E00197F1F700C00000B2
S1130120CF9108952FEF81EE94E0215080409040CC
S1130130E1F700C0000060EF86E390E00E946201F6
S113014040E060E086E390E00E94020140E062E06B
S113015086E390E00E94020140E061E086E390E0E3
S11301600E940201A9988FEC97E00197F1F700C073
S1130170000082E00E946E008FEC97E00197F1F797
S113018000C0000088E20E946E008FEC97E00197A7
S1130190F1F700C000008EE00E946E008FEC97E043
S11301A00197F1F700C0000081E00E946E008FE12A
S11301B09EE40197F1F700C000000895CF93C82F83
S11301C0682F82E40E94650141E060E086E390E0EC
S11301D00E943F010E9455006C2F6295607F82E46B
S11301E00E94650141E060E086E390E00E943F01E7
S11301F00E9455008FEC97E00197F1F700C00000D2
S1130200CF910895FC01413021F038F1423099F04A
S11302100895218181E090E0AC0102C0440F551F94
S11302206A95E2F7BA016095862F822381838281E1
S1130230682362830895218181E090E0AC0102C0CB
S1130240440F551F6A95E2F7BA01842F80958223E3
S113025081838281682B62830895218181E090E00B
S1130260AC0102C0440F551F6A95E2F7BA01822F10
S1130270842B81838281609568236283089544235B
S113028089F04130F1F4FC01428121E030E0F901D0
S113029002C0EE0FFF1F6A95E2F7BF01642BFC0159
S11302A062830895FC01428121E030E0F90102C03B
S11302B0EE0FFF1F6A95E2F7BF0160956423FC010E
S11302C062830895FC0161830895607F823479F02C
S11302D018F4813431F00895833479F0843499F03A
S11302E008958BB38F708BBB8BB3862B8BBB88B37A
S11302F08F7088BB88B3862B88BB85B38F7085BB12
S113030085B3862B85BB82B38F7082BB82B3682B87
S113031062BB089582B9089586B7846086BF86B7A4
S1130320806486BF86B7806886BF06B607FEFDCFA9
S113033081B1887F8036E1F786B7846086BF86B74F
S1130340806486BF86B7806886BF06B607FEFDCF89
S113035081B1887F8038E1F783B10895F894FFCFA5
S9030000FC
