S01300004D61737465725F436F64652E73726563CB
S11300000C942A000C943C000C943C000C943C008E
S11300100C943C000C943C000C943C000C943C006C
S11300200C943C000C943C000C943C000C943C005C
S11300300C943C000C943C000C943C000C943C004C
S11300400C943C000C943C000C943C000C943C003C
S11300500C943C0011241FBECFE5D8E0DEBFCDBF19
S113006020E0A0E6B0E001C01D92A436B207E1F79B
S11300700E945E000C941A010C940000109263001C
S11300801092610081E08093600060E573EC80E091
S113009090E00E94650008952FEF84E39CE02150D6
S11300A080409040E1F700C0000080EE0E94A10073
S11300B083E30E94D9000E94E80008950E943E0054
S11300C00E944C000E944C00FFCFCF939B01AC01D7
S11300D080916000813011F090E001C094E0809143
S11300E06100813041F080F0823041F0833049F08A
S11300F080E0C0E00BC081E0C4E008C082E0C0E161
S113010005C083E0C0E402C080E0C1E096BF81B9CD
S113011060E072E18AE790E00E94F800CA01B90148
S113012060517109810991092C2F30E0220F331F8E
S1130130442737FD4095542F0E94F80020B9CF91F1
S1130140089590916300992319F0933001F1089573
S113015096B7946096BF96B7906896BF96B790622C
S113016096BF06B607FEFDCF91B1987F9830E1F7B0
S113017083B986B7846086BF86B7806886BF06B6B3
S113018007FEFDCF81B1887F8831E1F7089582B9F8
S113019086B7846086BF86B7806486BF86B780686A
S11301A086BF06B607FEFDCF81B1887F8036E1F7B2
S11301B0089583B986B7846086BF86B7806886BF92
S11301C006B607FEFDCF81B1887F8832E1F7089536
S11301D086B7846086BF86B7806886BF86B780612D
S11301E086BF06B607FEFDCF06B604FCFDCF089514
S11301F0A1E21A2EAA1BBB1BFD010DC0AA1FBB1F27
S1130200EE1FFF1FA217B307E407F50720F0A21B98
S1130210B30BE40BF50B661F771F881F991F1A9405
S113022069F760957095809590959B01AC01BD012F
S10B0230CF010895F894FFCFFB
S9030000FC
