:100000000C942A000C943C000C943C000C943C0092
:100010000C943C000C943C000C943C000C943C0070
:100020000C943C000C943C000C943C000C943C0060
:100030000C943C000C943C000C943C000C943C0050
:100040000C943C000C943C000C943C000C943C0040
:100050000C943C0011241FBECFE5D8E0DEBFCDBF1D
:1000600020E0A0E6B0E001C01D92A536B207E1F79E
:100070000E947E000C9474020C9400000E94C00048
:10008000109262001092640060E573EC80E090E0F2
:100090000E94B80108952FEF84E39CE02150804036
:1000A0009040E1F700C0000080EA0E94EC0180E08F
:1000B0000E94230283E30E9423020E942E022FEF5C
:1000C00081EE94E0215080409040E1F700C00000B4
:1000D00080EA0E94EC0180E00E9423020E94190243
:1000E00081EA0E9438020E944302809360000E94CD
:1000F0002E02809160000E940C0108950E943E0033
:100100000E944B00FFCF41E062E086E390E00E9456
:100110006D018FE99FE00197F1F700C0000040E01A
:1001200062E086E390E00E946D018FE99FE0019715
:10013000F1F700C000000895CF93C82F682F82E424
:100140000E94930140E060E086E390E00E946D0130
:100150000E9483006C2F6295607F82E40E9493016D
:1001600040E060E086E390E00E946D010E94830021
:100170008FEC97E00197F1F700C00000CF91089550
:100180002FEF81EE94E0215080409040E1F700C0D5
:10019000000060EF86E390E00E94900140E060E0A4
:1001A00086E390E00E94300140E062E086E390E068
:1001B0000E94300140E061E086E390E00E9430015F
:1001C000A9988FEC97E00197F1F700C0000082E05A
:1001D0000E949C008FEC97E00197F1F700C00000AF
:1001E00088E20E949C008FEC97E00197F1F700C035
:1001F00000008EE00E949C008FEC97E00197F1F7E1
:1002000000C0000081E00E949C008FE19EE4019705
:10021000F1F700C000000895CF93C82F682F82E443
:100220000E94930141E060E086E390E00E946D014E
:100230000E9483006C2F6295607F82E40E9493018C
:1002400041E060E086E390E00E946D010E9483003F
:100250008FEC97E00197F1F700C00000CF9108956F
:10026000FC01413021F038F1423099F008952181AC
:1002700081E090E0AC0102C0440F551F6A95E2F79F
:10028000BA016095862F82238183828168236283ED
:100290000895218181E090E0AC0102C0440F551F18
:1002A0006A95E2F7BA01842F809582238183828147
:1002B000682B62830895218181E090E0AC0102C047
:1002C000440F551F6A95E2F7BA01822F842B818370
:1002D00082816095682362830895442389F04130C8
:1002E000F1F4FC01428121E030E0F90102C0EE0F9F
:1002F000FF1F6A95E2F7BF01642BFC01628308953A
:10030000FC01428121E030E0F90102C0EE0FFF1F45
:100310006A95E2F7BF0160956423FC01628308954A
:10032000FC0161830895607F823479F018F4813490
:1003300031F00895833479F0843499F008958BB3C3
:100340008F708BBB8BB3862B8BBB88B38F7088BBB6
:1003500088B3862B88BB85B38F7085BB85B3862B0E
:1003600085BB82B38F7082BB82B3682B62BB08955A
:10037000CF939B01AC0180916200813041F080F00D
:10038000823041F0833049F080E0C0E00BC081E072
:10039000C4E008C082E0C0E105C083E0C0E402C060
:1003A00080E0C1E081B960E072E18AE790E00E94FC
:1003B0005202CA01B90160517109810991092C2FBA
:1003C00030E0220F331F442737FD4095542F0E9401
:1003D000520220B9CF91089590916400992319F0A9
:1003E0009330A9F0089594EA96BF06B607FEFDCFB4
:1003F00091B1987F9830E1F783B984EA86BF06B659
:1004000007FEFDCF81B1887F8831E1F7089582B979
:1004100086B7846086BF86B7806486BF86B78068EB
:1004200086BF06B607FEFDCF81B1887F8036E1F733
:10043000089584EA86BF06B607FEFDCF81B1887FA6
:100440008031E1F7089583B984E886BF06B607FED8
:10045000FDCF81B1887F8832E1F7089586B7846047
:1004600086BF86B7806886BF86B7806186BF0895DD
:1004700083B984E886BF06B607FEFDCF81B1887FC9
:100480008034E1F7089586B7846086BF86B78068B8
:1004900086BF06B607FEFDCF81B1887F8835E1F7BC
:1004A00083B10895A1E21A2EAA1BBB1BFD010DC04A
:1004B000AA1FBB1FEE1FFF1FA217B307E407F50714
:1004C00020F0A21BB30BE40BF50B661F771F881FF0
:1004D000991F1A9469F760957095809590959B0186
:0C04E000AC01BD01CF010895F894FFCFDE
:00000001FF
