S01300004D61737465725F436F64652E73726563CB
S11300000C942A000C943C000C943C000C943C008E
S11300100C943C000C943C000C943C000C943C006C
S11300200C943C000C943C000C943C000C943C005C
S11300300C943C000C943C000C943C000C943C004C
S11300400C943C000C943C000C943C000C943C003C
S11300500C943C0011241FBECFE5D8E0DEBFCDBF19
S113006020E0A0E6B0E001C01D92A536B207E1F79A
S11300700E9468000C9412010C940000109262001B
S11300801092640060E573EC80E090E00E946F00E1
S11300900895809160008A30D0F42FEF84E39CE0CF
S11300A0215080409040E1F700C0000080EE0E94A3
S11300B0A30080916000805D0E94DB000E94E60046
S11300C0809160008F5F809360008A3030F30895E0
S11300D00E943E000E9449000E944900FFCFCF9336
S11300E09B01AC0180916200813041F080F082304C
S11300F041F0833049F080E0C0E00BC081E0C4E00F
S113010008C082E0C0E105C083E0C0E402C080E032
S1130110C1E081B960E072E18AE790E00E94F000FA
S1130120CA01B90160517109810991092C2F30E08C
S1130130220F331F442737FD4095542F0E94F000AF
S113014020B9CF91089590916400992319F09330C8
S113015001F1089596B7946096BF96B7906896BFDC
S113016096B7906296BF06B607FEFDCF91B1987F11
S11301709830E1F783B986B7846086BF86B7806814
S113018086BF06B607FEFDCF81B1887F8831E1F7CF
S1130190089582B986B7846086BF86B7806486BFB7
S11301A086B7806886BF06B607FEFDCF81B1887F1B
S11301B08036E1F7089583B984E886BF06B607FE62
S11301C0FDCF81B1887F8832E1F7089586B78460D6
S11301D086BF86B7806886BF86B7806186BF08956C
S11301E0A1E21A2EAA1BBB1BFD010DC0AA1FBB1F37
S11301F0EE1FFF1FA217B307E407F50720F0A21BA9
S1130200B30BE40BF50B661F771F881F991F1A9415
S113021069F760957095809590959B01AC01BD013F
S10B0220CF010895F894FFCF0B
S9030000FC
